:10000000EDC0000006C1000004C1000002C10000F4
:1000100000C10000FEC00000FCC00000FAC00000EB
:10002000F8C00000F6C00000E8C200005CC3000099
:10003000F0C00000EEC00000ECC00000EAC000000C
:10004000E8C00000E6C00000E4C00000E2C000001C
:10005000E0C00000A4C10000DCC00000DAC0000065
:10006000D8C00000D6C00000D4C00000D2C000003C
:10007000D0C00000CEC00000CCC00000CAC000004C
:10008000C8C00000C6C00000C4C00000C2C000005C
:10009000C0C00000BEC00000BCC00000BAC000006C
:1000A000B8C00000B6C00000B4C0000000010000ED
:1000B000C201120002000033013B00220000830154
:1000C0003F00210000450109002201006E011500DA
:1000D0002101005E0109000300002F010401030952
:1000E0000401012C02030904EB0014140342006C08
:1000F00000750065002000500069006C006C000075
:10010000002C03420061007400680072006F006FF1
:10011000006D0020004500700069007000680061FB
:10012000006E0069006500730020002D00000004CF
:1001300003090409023B00020100C0320904000067
:100140000103010100092111010001223F000705FF
:1001500083030800010904010001030000000921D4
:10016000110100012215000705840320000106315A
:10017000FF0974A1537508150026FF009520097525
:100180008102C005010906A101750195080507193D
:10019000E029E71500250181029501750881039585
:1001A000057501050819012905910295017503914D
:1001B000039506750815002568050719002968814B
:1001C00000C01201000200000020C0167E040001E1
:1001D00001020001000001C10601C12611241FBE59
:1001E000CFEFDAE0DEBFCDBF11E0A0E0B1E0E0E6A6
:1001F000FAE002C005900D92AA39B107D9F722E0C2
:10020000AAE9B1E001C01D92A836B207E1F78ED18C
:1002100025C4F6CECF93DF93A0E0B1E0CCECD1E0E3
:100220000BC0F0E0EE0FFF1FE95FFE4F8181899365
:1002300081E0A630B80749F0ED91EF3F91F780E0FB
:10024000899381E0A630B807B9F78091CA018093FD
:10025000D201DF91CF918BC1282F30E0220F331FC5
:10026000F901E852FE4F91E09083F901E95FFE4FFA
:10027000908191110DC0E5E0F1E0A6E0B1E092912E
:100280009E9391E0E030F907D1F780930001C2CF4F
:100290008091CA019181892B8093CA01BBCF282FFD
:1002A00030E0220F331FF901E852FE4F1082F901AE
:1002B000E95FFE4F9081911114C0E0E0F1E090E021
:1002C0002191281721F09F5F9630D1F7A3CFE92F16
:1002D000F0E0E050FF4F818180839F5F9630B9F757
:1002E000F5CF918190958091CA0189238093CA01AD
:1002F00091CF6091CB01462F417050E051954195CF
:1003000051095093AD014093AC014091CB0141FBA9
:10031000222720F930E03195219531093093AF0142
:100320002093AE012091CB0122FB882780F990E039
:100330009195819591099093B1018093B00188982E
:1003400067E1E62FF0E04CE050E020E038E0EE0F0F
:10035000FF1FE656FE4F09C0899A8D9A369527955C
:10036000415051094115510581F08D98808191814D
:1003700082239323892B81F789988D9A3695279527
:10038000415051094115510581F76150D0F68D98C2
:10039000889A85E18A95F1F70000889808951F9260
:1003A0000F920FB60F921124EF92FF920F931F93AB
:1003B0002F933F934F935F936F937F938F939F936D
:1003C000AF93BF93EF93FF93CF93DF931F92CDB77C
:1003D000DEB780916E008D7F80936E008E9845E130
:1003E0004A95F1F700008E9A85E18A95F1F70000B1
:1003F00029ED31E0F90188E090E04FB14095441FCC
:100400004427441F5081542B50838D9845E14A95D1
:10041000F1F700008D9A45E14A95F1F70000019748
:100420003296009751F7205F3F4F82E02936380718
:1004300009F7B9EDEB2EB1E0FB2E08ED11E090E0ED
:100440000DC08038A9F0880FF70180839F5FF2E02C
:10045000EF0EF11C0E5F1F4F9834E1F0F701808121
:100460008F3779F7F8018081882369F08FE7EBCF28
:10047000F8012081222339F3892F998310DFF701B6
:1004800080819981E0CF892F9983E6DEF701808111
:100490009981D7CF2EDF80916E00826080936E00AD
:1004A0000F90DF91CF91FF91EF91BF91AF919F910D
:1004B0008F917F916F915F914F913F912F911F91FC
:1004C0000F91FF90EF900F900FBE0F901F90189517
:1004D00034D04AD08823E9F380E8809361001092F9
:1004E000610085B7806885BF85B7806885BF8798BC
:1004F00080B3836780BB81B3836F81BB84B5826027
:1005000084BD85B5856085BD80E187BD1092CA0137
:10051000E9EDF1E0DF0111971C921082329682E042
:10052000E936F807B9F78C9878940895D1DF80916F
:100530006E00826080936E00FFCF81E08093D700D1
:1005400080EA8093D80082E189BD09B400FEFDCF26
:1005500080E98093D8001092E0001092D7018CE0DF
:100560008093E200789408958091D7010895809156
:10057000D701882309F43FC08FB7F89493E0909394
:10058000E9002091E4002E5C9091E80095FD1CC0EC
:100590008FBF8091D701882371F18091E400821789
:1005A00051F133E009C08FBF8091D701882319F141
:1005B0008091E4008217F9F08FB7F8943093E90046
:1005C0009091E80095FFEFCF9091D2019093F100C8
:1005D0001092F100ECECF1E091919093F10091E038
:1005E000E23DF907C9F79AE39093E8001092D5012C
:1005F0008FBF80E008958FEF08951F920F920FB67E
:100600000F9211248F939F93EF93FF938091E100BA
:100610001092E10083FF0FC01092E90091E09093E7
:10062000EB001092EC0092E29093ED0098E0909332
:10063000F0001092D70182FF38C08091D701882343
:10064000A1F18091D6018823A9F081508093D60131
:10065000811110C084E08093E9008091E80085FF5B
:1006600006C01092F1008091E80085FDFACF8AE380
:100670008093E800809197018823B9F08091D3019D
:100680008F5F8093D301837081F483E08093E900CE
:100690008091E80085FF09C08091D5018F5F80932C
:1006A000D50190919701891749F0FF91EF919F91A2
:1006B0008F910F900FBE0F901F9018951092D5013B
:1006C0008091D2018093F1001092F100ECECF1E006
:1006D00081918093F10081E0E23DF807C9F78AE358
:1006E0008093E800E2CF1F920F920FB60F92112471
:1006F0002F933F934F935F936F937F938F939F932A
:10070000AF93BF93CF93EF93FF931092E900809143
:10071000E80083FF49C0E091F1008091F100209151
:10072000F1009091F10030E0392B4091F10090916F
:10073000F10050E0592B6091F1009091F10070E0D0
:10074000792B92EF9093E800863009F442C085300F
:1007500009F4CBC0893009F483C0883009F4A6C0FD
:10076000811110C08091E80080FFFCCFE23809F4CD
:100770003AC180E08093F1001092F1008EEF8093F7
:10078000E80015C0982F9D7F913009F091C0E230AC
:1007900009F08EC0232B09F43BC14115510521F00E
:1007A0004130510509F4CCC081E28093EB00FF9108
:1007B000EF91CF91BF91AF919F918F917F916F9169
:1007C0005F914F913F912F910F900FBE0F901F900F
:1007D0001895C9E08CEA90E003C00796C15021F358
:1007E000FC01A591B4912A173B07B9F7FC01329699
:1007F000A591B4914A175B0781F7FC0134962591C6
:100800003491FC01369654916F3F710511F008F058
:1008100092C0651708F492C07EEF9091E800492FCE
:100820004570D9F392FDC3CF652F513208F458C0FB
:1008300060E2F901962F44914093F1009150319676
:100840009111F9CF8FEF860F90E00196280F391F95
:10085000561B7093E8005111E0CF6032F1F2A7CF40
:10086000E11126C02093D7018EEF8093E80041E08C
:1008700084ED91E04093E9009C012F5F3F4FFC0124
:1008800054915093EB00552359F0F9012491209392
:10089000EC009C012D5F3F4F319684918093ED00D9
:1008A0004F5F453009F4A9C0C901E4CFE03841F1F8
:1008B0004115510509F074CFE13A09F461C0E13204
:1008C00009F072CF893041F18A3009F4BFC08B3012
:1008D00009F06ACF209398018EEF8093E80067CFEC
:1008E0005111A7CF7093E80062CF8EEF8093E8009C
:1008F0008091E80080FFFCCF20682093E30057CF71
:100900008091E80080FFFCCF8091D7018093F100B7
:100910008EEF8093E8004BCF8091E80082FFFCCF00
:100920008091F1008093CB018BEF8093E8008EEFF4
:100930008093E8003CCF6FEF70E06BCF562F6CCF09
:10094000813009F031CFE13A09F02ECF2EEF8091BE
:10095000E800982F9570D9F382FD29CF962F613248
:1009600008F451C090E2892F1092F1008150E1F714
:10097000691B2093E8006111EACF903241F317CF51
:10098000813089F0823031F1833009F00DCF8091D0
:10099000E80080FFFCCF809198018093F1008EEFFA
:1009A0008093E80004CF8091E80080FFFCCF809125
:1009B000D2018093F1001092F100ECECF1E0819112
:1009C0008093F10081E0E23DF807C9F78EEF809354
:1009D000E800EDCE8091E80080FFFCCF8091970188
:1009E0008093F100F3CF4093E9008091EB0085FB09
:1009F000882780F91092E900BDCE8EE18093EA004D
:100A00001092EA00D4CE6111AECF2093E800CFCE91
:100A1000242F2F779FEF920F943008F0BECE9EEFD9
:100A20009093E8002093E900833009F4BDCE89E17A
:100A30008093EB0081E090E0022E01C0880F0A94C1
:100A4000EAF78093EA001092EA00B1CE3093970162
:100A50001092D5018EEF8093E800A9CEF894FFCFD5
:100A6000FFFFFFFFFFFFFF0030002A00040005002A
:100A7000060120003100280034002F002D002E0038
:100A8000650180000B0110003300130027000000F7
:100A900037000F0038014000120026000C000E0045
:100AA000100011000A0036001800250023001C0069
:100AB00024000B000D0000000A00170015002200A2
:100AC0001900090005002C000000210008000701A2
:100AD00004001B00090006001F0020001A00160079
:100AE00007001D000801080029001E002B0014004B
:0A0AF000040101006401027D010011
:00000001FF
